:100000000C94EE000C9416010C9416010C9416013D
:100010000C9416010C9416010C9416010C94160104
:100020000C9416010C9416010C942A0A0C94BC082A
:100030000C9416010C9416010C9416010C941601E4
:100040000C9416010C9416010C9416010C941601D4
:100050000C9416010C9416010C9416010C94FA02DF
:100060000C9416010C9416010C9416010C941601B4
:100070000C9416010C9416010C9416010C941601A4
:100080000C9416010C9416010C9416010C94160194
:100090000C9416010C9416010C9416010C94160184
:1000A0000C9416010C9416010C94160109040C040E
:1000B000FB03FF0305042D042D042D041004140478
:1000C00018041E0422042D04280400000002000964
:1000D0000F0000030401000C0000000000000000FD
:1000E0000000000000000000000408020110408031
:1000F000401020408040800802040180402010020F
:10010000011080102040402004040404040304056E
:1001100002020202040302020202060606060606A4
:100120000404020202040400000000230026002947
:10013000002C002F0000000000250028002B002EBE
:1001400000310000000000240027002A002D0030AC
:1001500000080B0002020201000904000001020273
:1001600000000524001001052401010104240206F9
:100170000524060001070581031000400904010061
:10018000020A000000070502024000000705830282
:1001900040000012010002EF0201404123368000BE
:1001A0000101020301120100020000004041233658
:1001B0008000010102030141726475696E6F204C79
:1001C0004C430041726475696E6F204C656F6E61BF
:1001D00072646F0004030904F401BC0511241FBEFE
:1001E000CFEFDAE0DEBFCDBF11E0A0E0B1E0EEE09E
:1001F000FDE102C005900D92A236B107D9F721E0CA
:10020000A2E6B1E001C01D92A43EB207E1F711E001
:10021000CCEDD1E004C02297FE010E94400CC83D05
:10022000D107C9F70E94DA050C94850E0C940000E2
:1002300061E08DE00E94670464EF71E080E090E08F
:100240000E94730360E08DE00E94670464EF71E038
:1002500080E090E00E94730361E08DE00E946704FB
:1002600064EF71E080E090E00E94730360E08DE055
:100270000E94670464EF71E080E090E00E947303E5
:1002800061E08DE00E94670464EF71E080E090E03F
:100290000E94730360E08DE00E94670464EF71E0E8
:1002A00080E090E00E94730361E08DE00E946704AB
:1002B00064EF71E080E090E00E94730360E08DE005
:1002C0000E94670464EF71E080E090E00C94730397
:1002D000CF93DF93C8E0D0E061E08DE00E94670437
:1002E00064E670E080E090E00E94730360E08DE0DF
:1002F0000E94670468EC70E080E090E00E94730365
:10030000219751F7DF91CF910895FF920F931F939B
:10031000CF93DF93C6E0D1E08881229660E00E940F
:100320002E0481E0C231D807B9F706E011E0C0E041
:10033000D0E0FF24F394F80180810E5F1F4F0E94EC
:100340009D0420916E0130916F01F901EC0FFD1FAA
:10035000019711F4F08201C010822196C630D105B8
:1003600051F7C0E061E08C2F0E942E04CF5FC830AF
:10037000C9F7C0E060E08C2F0E946704CF5FC830EF
:10038000C9F761E08DE00E942E04DF91CF911F91AB
:100390000F91FF900C946801FF920F931F93CF93DE
:1003A000DF938C0180936D0197E0F92EC0E8D0E0D7
:1003B0000C171D073CF061E08F2D0E9467040C1B99
:1003C0001D0B04C060E08F2D0E946704D7FD2196AD
:1003D000D595C795FA948FEFF812EACFDF91CF91B8
:1003E0001F910F91FF90089586E090E00E94ED0527
:1003F00090936F0180936E01089510926B01E091CC
:100400006E01F0916F0180E090E021E031913323A3
:1004100029F030916B01320F30936B01220F01965E
:100420008630910599F741E050E06BE671E089E78D
:1004300091E00C940D05FF920F931F93CF93DF93E0
:1004400006E011E0C0E0D0E0F12CF80180810E5F01
:100450001F4F0E949D0420916E0130916F01F901A0
:10046000EC0FFD1F019731F4808181111BC081E0E9
:10047000808304C080818823A9F010820E944403F5
:1004800068517C4F8F4F9F4F609367017093680155
:100490008093690190936A0161E08DE00E94670496
:1004A000FF24F3942196C630D10579F60E944403C7
:1004B00000916701109168012091690130916A01F2
:1004C000061717072807390720F460E08DE00E941F
:1004D0006704F1100E94FD018F2DDF91CF911F91D4
:1004E0000F91FF90089589E791E00E94F004892B15
:1004F00049F041E050E06CE671E089E791E00E944C
:100500004906F1CF80916C0190E00C94CC010F93DF
:100510001F93CF93DF9300D000D000D0CDB7DEB7CC
:1005200089E791E00E94AD0581110BC040E855E2DA
:1005300060E070E089E791E00E94A70510926201F7
:100540004EC080916201882361F189E791E00E94A9
:10055000F004892B11F00E9473020E941B0281118A
:100560003EC00E94440300916301109164012091F8
:10057000650130916601061717072807390778F5D6
:100580000E94440364527A4F8F4F9F4F60936301E0
:100590007093640180936501909366010E94FD0150
:1005A0001EC04AE069E771E0CE0101960E946C0628
:1005B00067E271E0CE0101960E94830B882359F017
:1005C00062E371E089E791E00E9409060E94180148
:1005D00081E080936201CE0101960E94C00A2696B6
:1005E0000FB6F894DEBF0FBECDBFDF91CF911F9144
:1005F0000F9108951F920F920FB60F9211242F930F
:100600003F938F939F93AF93BF938091710190918C
:100610007201A0917301B09174013091700123E0D7
:10062000230F2D3720F40196A11DB11D05C026E82A
:10063000230F0296A11DB11D2093700180937101BB
:1006400090937201A0937301B0937401809175012E
:1006500090917601A0917701B09178010196A11D4A
:10066000B11D8093750190937601A0937701B093AB
:100670007801BF91AF919F918F913F912F910F90F2
:100680000FBE0F901F9018952FB7F89460917101CD
:100690007091720180917301909174012FBF089540
:1006A0003FB7F8948091750190917601A091770100
:1006B000B091780126B5A89B05C02F3F19F001968F
:1006C000A11DB11D3FBF6627782F892F9A2F620F7A
:1006D000711D811D911D42E0660F771F881F991FB4
:1006E0004A95D1F70895CF92DF92EF92FF92CF9380
:1006F000DF936B017C010E945003EB01C114D10414
:10070000E104F10489F00E94A20B0E9450036C1BCB
:100710007D0B683E734090F381E0C81AD108E10870
:10072000F108C851DC4FEACFDF91CF91FF90EF90F5
:10073000DF90CF900895789484B5826084BD84B5AD
:10074000816084BD85B5826085BD85B5816085BDCC
:10075000EEE6F0E0808181608083E1E8F0E01082E5
:10076000808182608083808181608083E0E8F0E026
:10077000808181608083E1E9F0E080818260808314
:10078000808181608083E0E9F0E080818160808306
:10079000E1ECF0E0808184608083808182608083EE
:1007A000808181608083E3ECF0E0808181608083E0
:1007B000E0ECF0E0808182608083E2ECF0E0808118
:1007C00081608083EAE7F0E08081846080838081BB
:1007D0008260808380818160808380818068808363
:1007E000089590E0FC013197EF30F105B0F5EA5A39
:1007F000FF4F0C943E0C809180008F7703C0809156
:1008000080008F7D80938000089580918000877F95
:10081000F9CF84B58F7702C084B58F7D84BD0895EC
:10082000809190008F7707C0809190008F7D03C0EA
:1008300080919000877F8093900008958091C00000
:100840008F7703C08091C0008F7D8093C000089592
:100850008091C200877F8093C2000895CF93DF9379
:1008600090E0FC01E751FF4F2491FC01E85FFE4F4F
:100870008491882349F190E0880F991FFC01ED5B7A
:10088000FE4FA591B4918B5C9E4FFC01C591D49114
:100890009FB7611108C0F8948C91209582238C93A6
:1008A000888182230AC0623051F4F8948C91322FEF
:1008B000309583238C938881822B888304C0F8949D
:1008C0008C91822B8C939FBFDF91CF9108950F93D2
:1008D0001F93CF93DF931F92CDB7DEB7282F30E061
:1008E000F901E653FF4F8491F901E751FF4F14914D
:1008F000F901E85FFE4F04910023C9F0882321F03D
:1009000069830E94F1036981E02FF0E0EE0FFF1F81
:10091000EB5CFE4FA591B4919FB7F8948C91611157
:1009200003C01095812301C0812B8C939FBF0F9032
:10093000DF91CF911F910F910895CF93DF93282FCF
:1009400030E0F901E653FF4F8491F901E751FF4F81
:10095000D491F901E85FFE4FC491CC2391F081114D
:100960000E94F103EC2FF0E0EE0FFF1FE95DFE4F58
:10097000A591B4912C912D2381E090E021F480E0A9
:1009800002C080E090E0DF91CF910895CF93DF9394
:100990001F92CDB7DEB76983DC01ED91FC91028037
:1009A000F381E02D41E050E0BE016F5F7F4F09957C
:1009B0000F90DF91CF910895CF93DF93EC018C8559
:1009C0009D8597FF05C082E00E94A5079D878C87C3
:1009D0008C859D85DF91CF91089583E00C94200A4A
:1009E000FC018485958597FD06C082E00E944D0735
:1009F00090E00196089582E00E944D0790E00895EE
:100A0000FC018485958597FD05C02FEF3FEF358765
:100A10002487089582E00C94A507CF93DF93EC011F
:100A200080911D01882331F083E00E94D6071816BB
:100A3000190634F081E090E09B838A8380E090E0A7
:100A4000DF91CF910895FC0120812E5F208342E445
:100A500050E061E571E080E80C947108FC012181AF
:100A60008081813A59F4213209F05CC047E050E0BE
:100A700066E171E080E00E94710867C0813209F090
:100A800051C0233289F4838190E0982F88273281E6
:100A9000832BA0E0B0E08093120190931301A09308
:100AA0001401B09315010FC0203239F467E070E0F3
:100AB00086E191E00E94A2080AC0223221F48281DC
:100AC00080931D0104C02D7F203209F03EC080912B
:100AD000160190911701A0911801B0911901803B66
:100AE0009440A105B10501F580911D0180FD1CC058
:100AF00080910008909101089093FF0A8093FE0A6C
:100B000087E797E790930108809300082BE088E13E
:100B100090E00FB6F894A895809360000FBE2093E4
:100B2000600013C080E0089588E10FB6F8948093C8
:100B30006000109260000FBEA8958091FE0A90910F
:100B4000FF0A909301088093000881E008952FEF39
:100B50003FEFFC01358724870895CF93C0911D0195
:100B60006AE070E080E090E00E94730381E0C111D0
:100B700001C080E0CF91089510927C0110927B011A
:100B800088EE93E0A0E0B0E080937D0190937E0139
:100B9000A0937F01B093800185E491E090937A0166
:100BA000809379018FEF9FEF909386018093850169
:100BB000089508950E949B030E94D90589EC91E055
:100BC0000E94AD0A0E948501C0E0D0E00E94870229
:100BD0002097E1F30E940000F9CF0C94440C6115BA
:100BE000710581F0DB010D900020E9F7AD01415066
:100BF0005109461B570BDC01ED91FC910280F381FA
:100C0000E02D099480E090E0089561E571E00C9496
:100C1000EF050F931F93CF93DF93EC010E94EF0535
:100C20008C01CE010E940506800F911FDF91CF91AC
:100C30001F910F9108950F931F93CF93DF93EC01B2
:100C40000E944403688779878A879B87E881F981B6
:100C50000680F781E02DCE01099597FF15C00E940F
:100C60004403088519852A853B85601B710B820B1F
:100C7000930B0C811D812E813F81601771078207C4
:100C8000930720F38FEF9FEFDF91CF911F910F918B
:100C90000895CF92DF92EF92FF920F931F93CF931D
:100CA000DF937C016A01EB0100E010E00C151D05EB
:100CB00049F0C7010E941B0697FD04C089930F5F8E
:100CC0001F4FF4CFC801DF91CF911F910F91FF907B
:100CD000EF90DF90CF900895EF92FF920F931F93C4
:100CE000CF93DF93EC018B01E42E63E571E00E946A
:100CF0002E0BC8010E941B06FF24E7FCF09497FD11
:100D00000BC08E159F0541F0682FCE010E94700B1D
:100D1000C8010E941B06F3CFCE01DF91CF911F9136
:100D20000F91FF90EF900895615030F02091F10005
:100D3000FC0120830196F8CF289884E68093D201A5
:100D400008954091CD015091CE012091CB01309179
:100D5000CC0142175307B4F49091E8009570E1F389
:100D60009091E80092FD19C08093F1008091CD012F
:100D70009091CE0101968F739927892B19F48EEFEC
:100D80008093E8008091CD019091CE0101969093DF
:100D9000CE018093CD0181E0089580E00895CF9247
:100DA000DF92EF92FF920F931F93CF93DF931F92E7
:100DB000CDB7DEB7082F162FF42E862F880F8E5F43
:100DC00099830E94A10683E00E94A106E02EC02E16
:100DD0009981D92E8C2D8E19811798F4F601F7FE82
:100DE00002C0849101C080810E94A106082F80E08A
:100DF0000E94A1068023FFEFCF1ADF0A8111EACFFC
:100E000001C081E00F90DF91CF911F910F91FF9072
:100E1000EF90DF90CF9008958091D700816080930C
:100E2000D70080EA8093D80089B5806189BD89B5F3
:100E3000826089BD09B400FEFDCF61E070E080E012
:100E400090E00E9473038091D8008F7C8061809332
:100E5000D8008091E000807F8093E0000895CF93D8
:100E6000DF931F92CDB7DEB71982CE0101960E94A3
:100E700023050E942A0CBE016F5F7F4F0E94A30BC7
:100E800089810F90DF91CF9108952FB7FC012083C6
:100E9000F89467706093E9000895CF93DF931F92F1
:100EA000CDB7DEB7682FCE0101960E94450780912D
:100EB000F20099819FBF0F90DF91CF910895FF922B
:100EC0000F931F93CF93DF9300D0CDB7DEB7F62EED
:100ED0008A019091D101992311F057FF03C08FEF40
:100EE0009FEF2BC0682FCE0101967A830E944507A1
:100EF0008091F20090E0A8017A81801791070CF4AC
:100F0000AC01EF2DF72FF40E84E6FE1639F0289889
:100F10008093D2019091F1009193F7CF4115510543
:100F200021F08091F200882321F089818FBFCA01CE
:100F300004C08BE68093E800F8CF0F900F90DF910C
:100F4000CF911F910F91FF900895CF93DF931F9240
:100F5000CDB7DEB741E050E0BE016F5F7F4F0E942A
:100F60005F07019719F4898190E002C08FEF9FEF2E
:100F70000F90DF91CF910895CF93DF931F92CDB75C
:100F8000DEB7682FCE0101960E9445079091E800D8
:100F9000892F807295FF04C09091F20080E4891B34
:100FA00099819FBF0F90DF91CF9108956F927F92AB
:100FB0008F929F92AF92BF92CF92DF92EF92FF9269
:100FC0000F931F93CF93DF931F92CDB7DEB7782E89
:100FD0007B01C42EB52E8091D101882369F0042FA6
:100FE000152F8AEFD82E872D8072982E9AE3A92E7E
:100FF000872D8074882E11C08FEF9FEF57C0872DEB
:101000000E94BC07682E81110CC0DA94A9F361E03C
:1010100070E080E090E00E9473030115110579F7FC
:101020003BC0282F30E0021713070CF4602E672D09
:10103000CE0101960E9445078091E80085FF29C0F6
:10104000262D30E0021B130B992039F06A948FEFA4
:101050006816B1F01092F100F9CFF701862D77FEF6
:1010600007C0815058F094919093F1003196F9CFD8
:10107000815020F091919093F100FACFE20EF31E8F
:101080008091E80085FF0FC00115110511F4811052
:101090000AC089818FBFC1CF5D9884E68093D30158
:1010A0008C2D9B2D03C0A092E800F3CF0F90DF9111
:1010B000CF911F910F91FF90EF90DF90CF90BF9055
:1010C000AF909F908F907F906F9008951092E9005D
:1010D0001092CE011092CD019093CC018093CB0160
:1010E0000895CF92DF92FF920F931F93CF93DF93D8
:1010F00000D0CDB7DEB7F82E8A016B0101151105BE
:10110000B1F0F601F7FE02C0849101C080814983ED
:101110005A830E94A10601501109FFEFCF1ADF0A7E
:1011200049815A818111EACF8FEF9FEF01C0CA0137
:101130000F900F90DF91CF911F910F91FF90DF9053
:10114000CF9008951F93CF93DF931F92CDB7DEB753
:10115000162F2091E80022FFFCCF612F79830E9497
:1011600094068BEF8093E800812F7981972F0F9061
:10117000DF91CF911F9108951F920F920FB60F929A
:101180001124DF92EF92FF920F931F932F933F93BF
:101190004F935F936F937F938F939F93AF93BF937F
:1011A000EF93FF93CF93DF93CDB7DEB76C97DEBF9E
:1011B000CDBF1092E9008091E80083FF23C168E071
:1011C000CE0145960E94940682EF8093E8003D8907
:1011D00037FF05C08091E80080FFFCCF03C08EEF91
:1011E0008093E800832F807609F0F0C02E894F8924
:1011F000D88C21110CC0303829F48091D001809313
:10120000F10002C01092F1001092F100F4C0842F9E
:1012100090E09D29213049F43111EDC0019709F08A
:10122000EAC08091D0018D7F0AC0233059F431117A
:10123000E2C0019709F0DFC08091D0018260809305
:10124000D001D9C0253041F48091E80080FFFCCF67
:1012500040684093E300CFC0263009F08DC0EB8C8E
:10126000FC8C22E0D2122CC080E090E00E94660844
:101270000E942F0799E08E010F5F1F4FF801292F61
:1012800011922A95E9F79983DA8291E09E8390EA98
:1012900098879AEF99872091CD013091CE01275FF1
:1012A0003F4F3C832B838D83C7010E94660849E032
:1012B00050E0B80180E00E9471080E942F079BC097
:1012C000C7010E9466080E942A0CBE016B5E7F4F18
:1012D0000E94CC0B009719F00CF08DC090C081E0FB
:1012E000D8120EC08B8D9C8D089719F481E08093E5
:1012F000CA018091CA0181112FC065EA71E031C035
:10130000E3E0DE127CC08F89882349F1823029F422
:1013100040E860E183EC91E01CC0813029F440E8B2
:101320006BE087EB91E015C0833009F068C00E9444
:101330002A0C8E010F5F1F4FB8010E94EB0BF801C2
:1013400001900020E9F73197E01BF10B40E06E2F90
:10135000C8010E94CF064DC063E971E002C064ED90
:1013600071E06115710509F44AC0FB01449150E038
:1013700080E80E9471083FC0273009F440C028303F
:1013800021F481E08093F10036C02930A1F533705B
:10139000B1F5EFE1F1E081E021E036E390819923BE
:1013A00061F08093E9002093EB0091919093EC0021
:1013B0003093ED008F5F873089F78EE78093EA00E6
:1013C0001092EA008F898093D10115C08B8D9C8D7E
:1013D0000E946608898D811105C0CE0145960E9444
:1013E0002E0507C00E942A0CBE016B5E7F4F0E9433
:1013F0000A0C882321F08EEF8093E80003C081E27D
:101400008093EB006C960FB6F894DEBF0FBECDBF95
:10141000DF91CF91FF91EF91BF91AF919F918F910C
:101420007F916F915F914F913F912F911F910F91FC
:10143000FF90EF90DF900F900FBE0F901F901895C8
:101440008093E9008091F200882319F08AE3809369
:10145000E80008951F920F920FB60F9211242F9358
:101460003F934F935F936F937F938F939F93AF932C
:10147000BF93CF93EF93FF93C091E1008091E10080
:10148000837F8093E1008093E100C3FF0FC010923F
:10149000E90081E08093EB001092EC0082E38093FE
:1014A000ED001092D10188E08093F000C2FF19C0D6
:1014B00083E00E94200A8091D301882339F0809133
:1014C000D30181508093D301882389F18091D20187
:1014D000882339F08091D20181508093D2018823F2
:1014E00041F1C4FF10C08091E2008E7E8160809344
:1014F000E2008091E1008F7E8093E1008091CF0136
:101500008E7E806111C0C0FF16C08091E2008E7E89
:1015100080618093E2008091E1008E7E8093E10003
:101520008091CF018E7E81608093CF0104C05D9A4F
:10153000CDCF289AD6CFFF91EF91CF91BF91AF91A8
:101540009F918F917F916F915F914F913F912F91DB
:101550000F900FBE0F901F9018951092D10110920E
:10156000D0011092CF010E940C07E1EEF0E08081E3
:101570008E7E80838DE08093E200559A209A0895B4
:10158000FC01808191810C94DC0CCF93DF93EC0102
:1015900088819981009711F00E94DC0C19821882D1
:1015A0001D821C821B821A82DF91CF9108950F93B6
:1015B0001F93CF93DF93EC018B016F5F7F4F888187
:1015C00099810E946B0D009731F0998388831B836A
:1015D0000A8381E001C080E0DF91CF911F910F91DC
:1015E0000895CF93DF93EC0188819981892B29F0AD
:1015F0008A819B818617970760F4CE010E94D70AE3
:10160000882341F08C819D81892B19F4E881F9812F
:10161000108281E0DF91CF910895EF92FF920F93B6
:101620001F93CF93DF93EC017B018A01BA010E94E3
:10163000F10A811104C0CE010E94C50A07C01D83B2
:101640000C83B701888199810E94470ECE01DF91FA
:10165000CF911F910F91FF90EF900895FC0111829F
:10166000108213821282158214826115710559F05D
:10167000FB0101900020E9F7AF0141505109461BE1
:10168000570B0C940D0B0895EF92FF920F931F933D
:10169000CF93DF93EC017B010C811D8161157105F6
:1016A00011F480E016C04115510591F0040F151F8B
:1016B000B8010E94F10A8823A1F3288139818C8125
:1016C0009D81B701820F931F0E94470E1D830C83DB
:1016D00081E0DF91CF911F910F91FF90EF900895DE
:1016E000CF93DF9300D0CDB7DEB769831A8241E094
:1016F00050E0BE016F5F7F4F0E94440B0F900F9030
:10170000DF91CF910895FC0124813581232B31F4A1
:1017100021E061157105A1F0FB0108C0FC01808189
:1017200091816115710531F421E0FC0180818823EC
:1017300039F005C00E943E0E21E0892B09F020E01F
:10174000822F08950895EF92FF920F931F93CF93E6
:10175000DF937B01FC01C281D38100E010E0209780
:1017600081F0E881F9810280F381E02DB701CE019B
:10177000099597FD08C0080F191F0884D985C02D49
:10178000EECFC80102C08FEF9FEFDF91CF911F9185
:101790000F91FF90EF9008950F931F93CF93DF93D6
:1017A0008B01FC01C281D381209771F0E881F9811E
:1017B0000480F581E02DB801CE010995009731F440
:1017C0000884D985C02DF0CF80E090E0DF91CF91E3
:1017D0001F910F9108950F931F93CF93DF938B0168
:1017E000FC01C281D381209771F0E881F9810680E4
:1017F000F781E02DB801CE010995080F111D08846D
:10180000D985C02DF0CFF8011082DF91CF911F91C3
:101810000F9108950F931F93CF93DF938B01FC01DA
:10182000C281D381209771F0E881F9810190F08124
:10183000E02DB801CE010995811106C00884D98533
:10184000C02DF0CF80E001C081E0DF91CF911F91EA
:101850000F9108958091D80181110DC082E080938D
:10186000D40184E08093D5011092D7011092D60163
:1018700081E08093D80184ED91E00895EE0FFF1F81
:101880000590F491E02D0994CF93DF938230910578
:1018900010F482E090E0E091E201F091E30120E0B9
:1018A00030E0A0E0B0E0309739F140815181481735
:1018B0005907B8F04817590771F48281938110973E
:1018C00029F013969C938E9312972CC09093E3016A
:1018D0008093E20127C02115310531F042175307EB
:1018E00018F0A901DB0101C0EF019A01BD01DF0180
:1018F0000280F381E02DD7CF21153105F9F0281BA7
:10190000390B2430310580F48A819B816115710582
:1019100021F0FB019383828304C09093E3018093C1
:10192000E201FE01329644C0FE01E20FF31F8193F3
:10193000919322503109398328833AC02091E001E4
:101940003091E101232B41F42091020130910301F8
:101950003093E1012093E0012091000130910101D9
:101960002115310541F42DB73EB740910401509146
:101970000501241B350BE091E001F091E101E21734
:10198000F307A0F42E1B3F0B2817390778F0AC01A2
:101990004E5F5F4F2417350748F04E0F5F1F50937F
:1019A000E1014093E0018193919302C0E0E0F0E017
:1019B000CF01DF91CF910895CF93DF93009709F482
:1019C00087C0FC01329713821282C091E201D0914C
:1019D000E301209781F420813181280F391F809104
:1019E000E0019091E1018217930779F5F093E1010D
:1019F000E093E0016DC0DE0120E030E0AE17BF07EC
:101A000050F412964D915C9113979D01411551052B
:101A100009F1DA01F3CFB383A28340815181840FAE
:101A2000951F8A179B0771F48D919C911197840FD4
:101A3000951F02969183808312968D919C911397A6
:101A4000938382832115310529F4F093E301E09318
:101A5000E2013EC0D9011396FC93EE9312974D918B
:101A60005D91A40FB51FEA17FB0779F4808191817E
:101A7000840F951F0296D90111969C938E938281B3
:101A8000938113969C938E931297E0E0F0E08A8105
:101A90009B81009719F0FE01EC01F9CFCE0102966F
:101AA00028813981820F931F2091E0013091E1015B
:101AB0002817390769F4309729F41092E30110923E
:101AC000E20102C013821282D093E101C093E001CF
:101AD000DF91CF910895A0E0B0E0E1E7FDE00C9444
:101AE000520EEC01CB01209719F40E94440CB8C0AF
:101AF000FE01E60FF71F9E0122503109E217F3079E
:101B000008F4ACC0D9010D911C9111970617170765
:101B1000B8F00530110508F49FC0A80144505109E0
:101B20004617570708F498C002501109061B170BF7
:101B3000019311936D937C93CF010E94DC0C8CC0B8
:101B40005B01A01AB10A4E01800E911EA091E20124
:101B5000B091E301612C712C60E070E0109709F402
:101B600049C0A815B905C9F5ED90FC90119767011A
:101B700042E0C40ED11CCA14DB0478F147018A1874
:101B80009B08640142E0C40ED11C1296BC901297CF
:101B90001396AC91B5E0CB16D10440F0B282A3838A
:101BA00091828082D9018D939C9309C00E5F1F4F53
:101BB0000E0D1F1DF90111830083EB2DFA2F611506
:101BC000710531F0DB011396FC93EE93129744C03C
:101BD000F093E301E093E2013FC06D917C91119796
:101BE0006616770608F43B01BD0112960D90BC9174
:101BF000A02DB4CF6091E0017091E10168157905E5
:101C0000E9F468167906D0F4409100015091010181
:101C10004115510541F44DB75EB7609104017091D3
:101C20000501461B570BE417F507C0F4F093E101DB
:101C3000E093E001F901918380830EC00E94440C7F
:101C40007C01009759F0A801BE010E94350ECE011B
:101C50000E94DC0CC70104C0CE0102C080E090E00D
:101C6000CDB7DEB7EEE00C946E0EFB01DC0102C0D6
:101C700001900D9241505040D8F70895FB01DC01CE
:101C80008D91019080190110D9F3990B0895FB01F2
:101C9000DC0101900D920020E1F708952F923F9210
:101CA0004F925F926F927F928F929F92AF92BF926C
:101CB000CF92DF92EF92FF920F931F93CF93DF9318
:101CC000CDB7DEB7CA1BDB0B0FB6F894DEBF0FBE75
:101CD000CDBF09942A88398848885F846E847D84C2
:101CE0008C849B84AA84B984C884DF80EE80FD80C4
:101CF0000C811B81AA81B981CE0FD11D0FB6F8943A
:0E1D0000DEBF0FBECDBFED010895F894FFCFFA
:101D0E000000E401800012001300140015001600FC
:101D1E001700FFFFFFFF00E100000000000000C100
:101D2E00808100000020006D61726B6F77616E67BD
:101D3E0061004861736C6F20706F707261776E65B1
:101D4E000000000000C6040D05F0040005DC04EDE3
:101D5E00040D0A006E616E00696E66006F76660095
:021D6E002E0045
:00000001FF
