:100000000C94ED000C9415010C9415010C94150141
:100010000C9415010C9415010C9415010C94150108
:100020000C9415010C9415010C944B0A0C94DD08EA
:100030000C9415010C9415010C9415010C941501E8
:100040000C9415010C9415010C9415010C941501D8
:100050000C9415010C9415010C9415010C94F202EA
:100060000C9415010C9415010C9415010C941501B8
:100070000C9415010C9415010C9415010C941501A8
:100080000C9415010C9415010C9415010C94150198
:100090000C9415010C9415010C9415010C94150188
:1000A0000C9415010C9415010C94150113041604FD
:1000B000050409040F043704370437041A041E0426
:1000C000220428042C043704320400000002000932
:1000D0000F0000030401000C0000000000000000FD
:1000E0000000000000000000000408020110408031
:1000F000401020408040800802040180402010020F
:10010000011080102040402004040404040304056E
:1001100002020202040302020202060606060606A4
:100120000404020202040400000000230026002947
:10013000002C002F0000000000250028002B002EBE
:1001400000310000000000240027002A002D0030AC
:1001500000080B0002020201000904000001020273
:1001600000000524001001052401010104240206F9
:100170000524060001070581031000400904010061
:10018000020A000000070502024000000705830282
:1001900040000012010002EF0201404123368000BE
:1001A0000101020301120100020000004041233658
:1001B0008000010102030141726475696E6F204C79
:1001C0004C430041726475696E6F204C656F6E61BF
:1001D00072646F0004030904C60511241FBECFEF2B
:1001E000DAE0DEBFCDBF11E0A0E0B1E0E0E5FDE187
:1001F00002C005900D92A236B107D9F721E0A2E620
:10020000B1E001C01D92AC3EB207E1F711E0CAEDCA
:10021000D1E004C02297FE010E94610CC83DD107C5
:10022000C9F70E94E4050C94A60E0C9400001092ED
:100230006C0110926D0110926E0110926F0110927C
:100240007001109271010895CF93DF93C4E0D0E064
:1002500061E08DE00E94710464EF71E080E090E065
:100260000E946B0360E08DE00E94710464EF71E016
:1002700080E090E00E946B03219751F7DF91CF91CE
:100280000895CF93DF93C8E0D0E061E08DE00E9455
:10029000710464E670E080E090E00E946B0360E02F
:1002A0008DE00E94710468EC70E080E090E00E94B4
:1002B0006B03219751F7DF91CF910895FF920F9330
:1002C0001F93CF93DF93C6E0D1E08881229660E050
:1002D0000E94380481E0C231D807B9F702E711E083
:1002E000C6E0D1E0FF24F394888122960E94A704FF
:1002F000F801019711F4F08201C010820F5F1F4FC7
:10030000F1E0C231DF0781F7C0E061E08C2F0E948D
:100310003804CF5FC830C9F7C0E060E08C2F0E947E
:100320007104CF5FC830C9F761E08DE00E943804E6
:10033000DF91CF911F910F91FF900C94410195E0B7
:1003400040E251E0292F30E0F901E459FE4F8417D3
:1003500018F05083841B01C010824695915090F78D
:100360000895FF920F931F93CF93DF938C01809397
:100370006B0197E0F92EC0E8D0E00C171D073CF0A8
:1003800061E08F2D0E9471040C1B1D0B04C060E006
:100390008F2D0E947104D7FD2196D595C795FA94AB
:1003A0008FEFF812EACFDF91CF911F910F91FF905D
:1003B0000895CF93DF931F92CDB7DEB7E2E7F1E068
:1003C00080E091E021912111890F990F21E0E83718
:1003D000F207C1F7898341E050E0BE016F5F7F4FB4
:1003E00081E891E00E9417050F90DF91CF91089569
:1003F000DF92EF92FF920F931F93CF93DF930CE660
:1004000011E0C2E7D1E026E0E22E21E0F22ED12C6D
:10041000F80181918F01882321F1F70180810E94E9
:10042000A704019731F4888181111BC081E0888382
:1004300004C088818823A9F018820E943C03685177
:100440007C4F8F4F9F4F609367017093680180933B
:10045000690190936A0161E08DE00E947104DD24DE
:10046000D3942196F2E0EF0EF11C81E002371807D9
:1004700079F60E943C030091670110916801209178
:10048000690130916A01061717072807390720F418
:1004900060E08DE00E947104D1100E94D9018D2D81
:1004A000DF91CF911F910F91FF90EF90DF90089512
:1004B000CF93DF9300D0CDB7DEB781E891E00E9403
:1004C000FA04892B51F042E050E0BE016F5F7F4F8C
:1004D00081E891E00E945106F0CF8981811105C029
:1004E0008A8190E00E94B10103C08A810E949F012D
:1004F0000F900F90DF91CF9108950F931F93CF939B
:10050000DF9300D000D000D0CDB7DEB781E891E016
:100510000E94B70581110DC040E855E260E070E02F
:1005200081E891E00E94B1050E94170110926201DA
:100530004EC080916201882361F181E891E00E94C0
:10054000FA04892B11F00E9458020E94F8018111CF
:100550003EC00E943C030091630110916401209110
:10056000650130916601061717072807390778F5E6
:100570000E943C0364527A4F8F4F9F4F60936301F8
:100580007093640180936501909366010E94D90184
:100590001EC04AE061E871E0CE0101960E94740637
:1005A00067E271E0CE0101960E94A40B882359F006
:1005B00062E371E081E891E00E9411060E9424014B
:1005C00081E080936201CE0101960E94E10A2696A5
:1005D0000FB6F894DEBF0FBECDBFDF91CF911F9154
:1005E0000F9108951F920F920FB60F9211242F931F
:1005F0003F938F939F93AF93BF9380917901909195
:100600007A01A0917B01B0917C013091780123E0C7
:10061000230F2D3720F40196A11DB11D05C026E83A
:10062000230F0296A11DB11D2093780180937901BB
:1006300090937A01A0937B01B0937C0180917D011E
:1006400090917E01A0917F01B09180010196A11D42
:10065000B11D80937D0190937E01A0937F01B093A3
:100660008001BF91AF919F918F913F912F910F90FA
:100670000FBE0F901F9018952FB7F89460917901D5
:1006800070917A0180917B0190917C012FBF089538
:100690003FB7F89480917D0190917E01A0917F01F8
:1006A000B091800126B5A89B05C02F3F19F0019697
:1006B000A11DB11D3FBF6627782F892F9A2F620F8A
:1006C000711D811D911D42E0660F771F881F991FC4
:1006D0004A95D1F708958F929F92AF92BF92CF9291
:1006E000DF92EF92FF926B017C010E9448034B0165
:1006F0005C01C114D104E104F104F1F00E94C30BC8
:100700000E944803681979098A099B09683E734069
:100710008105910570F321E0C21AD108E108F108C2
:1007200088EE880E83E0981EA11CB11CC114D10470
:10073000E104F10429F7DDCFFF90EF90DF90CF9037
:10074000BF90AF909F908F900895789484B5826009
:1007500084BD84B5816084BD85B5826085BD85B565
:10076000816085BDEEE6F0E0808181608083E1E814
:10077000F0E010828081826080838081816080834C
:10078000E0E8F0E0808181608083E1E9F0E0808151
:1007900082608083808181608083E0E9F0E08081F5
:1007A00081608083E1ECF0E08081846080838081DF
:1007B00082608083808181608083E3ECF0E08081CF
:1007C00081608083E0ECF0E0808182608083E2ECF5
:1007D000F0E0808181608083EAE7F0E080818460DE
:1007E000808380818260808380818160808380813A
:1007F00080688083089590E0FC013197EF30F10527
:10080000B0F5EA5AFF4F0C945F0C809180008F770F
:1008100003C0809180008F7D809380000895809137
:100820008000877FF9CF84B58F7702C084B58F7D34
:1008300084BD0895809190008F7707C080919000CB
:100840008F7D03C080919000877F809390000895F2
:100850008091C0008F7703C08091C0008F7D80930E
:10086000C00008958091C200877F8093C2000895E0
:10087000CF93DF9390E0FC01E751FF4F2491FC01FF
:10088000E85FFE4F8491882349F190E0880F991F1B
:10089000FC01ED5BFE4FA591B4918B5C9E4FFC017A
:1008A000C591D4919FB7611108C0F8948C9120959F
:1008B00082238C93888182230AC0623051F4F89499
:1008C0008C91322F309583238C938881822B88835F
:1008D00004C0F8948C91822B8C939FBFDF91CF91B1
:1008E00008950F931F93CF93DF931F92CDB7DEB779
:1008F000282F30E0F901E653FF4F8491F901E751C9
:10090000FF4F1491F901E85FFE4F04910023C9F0F5
:10091000882321F069830E94FB036981E02FF0E0C6
:10092000EE0FFF1FEB5CFE4FA591B4919FB7F894BB
:100930008C91611103C01095812301C0812B8C9390
:100940009FBF0F90DF91CF911F910F910895CF938B
:10095000DF93282F30E0F901E653FF4F8491F9012E
:10096000E751FF4FD491F901E85FFE4FC491CC23CA
:1009700091F081110E94FB03EC2FF0E0EE0FFF1FBE
:10098000E95DFE4FA591B4912C912D2381E090E07B
:1009900021F480E002C080E090E0DF91CF910895E3
:1009A000CF93DF931F92CDB7DEB76983DC01ED9162
:1009B000FC910280F381E02D41E050E0BE016F5FC9
:1009C0007F4F09950F90DF91CF910895CF93DF93DB
:1009D000EC018C859D8597FF05C082E00E94AD07E4
:1009E0009D878C878C859D85DF91CF91089583E0CD
:1009F0000C94410AFC018485958597FD06C082E030
:100A00000E94550790E00196089582E00E945507E4
:100A100090E00895FC018485958597FD05C02FEF32
:100A20003FEF35872487089582E00C94AD07CF937C
:100A3000DF93EC0180911D01882331F083E00E9457
:100A4000DE071816190634F081E090E09B838A8354
:100A500080E090E0DF91CF910895FC0120812E5F2E
:100A6000208342E450E061E571E080E80C9479086D
:100A7000FC0121818081813A59F4213209F05CC066
:100A800047E050E066E171E080E00E94790867C0CD
:100A9000813209F051C0233289F4838190E0982F8C
:100AA00088273281832BA0E0B0E0809312019093DD
:100AB0001301A0931401B09315010FC0203239F433
:100AC00067E070E086E191E00E94AA080AC0223245
:100AD00021F4828180931D0104C02D7F203209F012
:100AE0003EC08091160190911701A0911801B0911C
:100AF0001901803B9440A105B10501F580911D01CC
:100B000080FD1CC080910008909101089093FF0A1D
:100B10008093FE0A87E797E7909301088093000887
:100B20002BE088E190E00FB6F894A89580936000E0
:100B30000FBE2093600013C080E0089588E10FB6D7
:100B4000F89480936000109260000FBEA895809189
:100B5000FE0A9091FF0A909301088093000881E0BB
:100B600008952FEF3FEFFC01358724870895CF9339
:100B7000C0911D016AE070E080E090E00E946B038C
:100B800081E0C11101C080E0CF91089510928401ED
:100B90001092830188EE93E0A0E0B0E0809385019D
:100BA00090938601A0938701B093880185E491E03A
:100BB00090938201809381018FEF9FEF90938E013C
:100BC00080938D01089508950E94A5030E94E30576
:100BD00081ED91E00E94CE0A0E945E01C0E0D0E06B
:100BE0000E947D022097E1F30E940000F9CF611579
:100BF000710581F0DB010D900020E9F7AD01415056
:100C00005109461B570BDC01ED91FC910280F381E9
:100C1000E02D099480E090E0089561E571E00C9486
:100C2000F7050F931F93CF93DF93EC010E94F70515
:100C30008C01CE010E940D06800F911FDF91CF9194
:100C40001F910F9108950F931F93CF93DF93EC01A2
:100C50000E943C03688779878A879B87E881F981AE
:100C60000680F781E02DCE01099597FF15C00E94FF
:100C70003C03088519852A853B85601B710B820B17
:100C8000930B0C811D812E813F81601771078207B4
:100C9000930720F38FEF9FEFDF91CF911F910F917B
:100CA0000895CF92DF92EF92FF920F931F93CF930D
:100CB000DF937C016A01EB0100E010E00C151D05DB
:100CC00049F0C7010E94230697FD04C089930F5F76
:100CD0001F4FF4CFC801DF91CF911F910F91FF906B
:100CE000EF90DF90CF900895EF92FF920F931F93B4
:100CF000CF93DF93EC018B01E42E63E571E00E945A
:100D00004F0BC8010E942306FF24E7FCF09497FDD7
:100D10000BC08E159F0541F0682FCE010E94910BEC
:100D2000C8010E942306F3CFCE01DF91CF911F911E
:100D30000F91FF90EF900895615030F02091F100F5
:100D4000FC0120830196F8CF289884E68093DA018D
:100D500008954091D5015091D6012091D301309151
:100D6000D40142175307B4F49091E8009570E1F371
:100D70009091E80092FD19C08093F1008091D50117
:100D80009091D60101968F739927892B19F48EEFD4
:100D90008093E8008091D5019091D60101969093BF
:100DA000D6018093D50181E0089580E00895CF9227
:100DB000DF92EF92FF920F931F93CF93DF931F92D7
:100DC000CDB7DEB7082F162FF42E862F880F8E5F33
:100DD00099830E94A90683E00E94A906E02EC02EF6
:100DE0009981D92E8C2D8E19811798F4F601F7FE72
:100DF00002C0849101C080810E94A906082F80E072
:100E00000E94A9068023FFEFCF1ADF0A8111EACFE3
:100E100001C081E00F90DF91CF911F910F91FF9062
:100E2000EF90DF90CF9008958091D70081608093FC
:100E3000D70080EA8093D80089B5806189BD89B5E3
:100E4000826089BD09B400FEFDCF61E070E080E002
:100E500090E00E946B038091D8008F7C806180932A
:100E6000D8008091E000807F8093E0000895CF93C8
:100E7000DF931F92CDB7DEB71982CE0101960E9493
:100E80002D050E944B0CBE016F5F7F4F0E94C40B6B
:100E900089810F90DF91CF9108952FB7FC012083B6
:100EA000F89467706093E9000895CF93DF931F92E1
:100EB000CDB7DEB7682FCE0101960E944D07809115
:100EC000F20099819FBF0F90DF91CF910895FF921B
:100ED0000F931F93CF93DF9300D0CDB7DEB7F62EDD
:100EE0008A019091D901992311F057FF03C08FEF28
:100EF0009FEF2BC0682FCE0101967A830E944D0789
:100F00008091F20090E0A8017A81801791070CF49B
:100F1000AC01EF2DF72FF40E84E6FE1639F0289879
:100F20008093DA019091F1009193F7CF411551052B
:100F300021F08091F200882321F089818FBFCA01BE
:100F400004C08BE68093E800F8CF0F900F90DF91FC
:100F5000CF911F910F91FF900895CF93DF931F9230
:100F6000CDB7DEB741E050E0BE016F5F7F4F0E941A
:100F70006707019719F4898190E002C08FEF9FEF16
:100F80000F90DF91CF910895CF93DF931F92CDB74C
:100F9000DEB7682FCE0101960E944D079091E800C0
:100FA000892F807295FF04C09091F20080E4891B24
:100FB00099819FBF0F90DF91CF9108956F927F929B
:100FC0008F929F92AF92BF92CF92DF92EF92FF9259
:100FD0000F931F93CF93DF931F92CDB7DEB7782E79
:100FE0007B01C42EB52E8091D901882369F0042F8E
:100FF000152F8AEFD82E872D8072982E9AE3A92E6E
:10100000872D8074882E11C08FEF9FEF57C0872DDA
:101010000E94C407682E81110CC0DA94A9F361E024
:1010200070E080E090E00E946B030115110579F7F4
:101030003BC0282F30E0021713070CF4602E672DF9
:10104000CE0101960E944D078091E80085FF29C0DE
:10105000262D30E0021B130B992039F06A948FEF94
:101060006816B1F01092F100F9CFF701862D77FEE6
:1010700007C0815058F094919093F1003196F9CFC8
:10108000815020F091919093F100FACFE20EF31E7F
:101090008091E80085FF0FC00115110511F4811042
:1010A0000AC089818FBFC1CF5D9884E68093DB0140
:1010B0008C2D9B2D03C0A092E800F3CF0F90DF9101
:1010C000CF911F910F91FF90EF90DF90CF90BF9045
:1010D000AF909F908F907F906F9008951092E9004D
:1010E0001092D6011092D5019093D4018093D30130
:1010F0000895CF92DF92FF920F931F93CF93DF93C8
:1011000000D0CDB7DEB7F82E8A016B0101151105AD
:10111000B1F0F601F7FE02C0849101C080814983DD
:101120005A830E94A90601501109FFEFCF1ADF0A66
:1011300049815A818111EACF8FEF9FEF01C0CA0127
:101140000F900F90DF91CF911F910F91FF90DF9043
:10115000CF900895BF92CF92DF92EF92FF920F93BC
:101160001F93CF93DF936C018B01EB013BEFB32E09
:101170002097C1F07E01C134D1051CF020E4E22E9D
:10118000F12C8091E80082FFFCCFC8018C1B9D0BE5
:101190006E2D8C0D9D1D0E949C06B092E800CE190C
:1011A000DF09E6CFC801DF91CF911F910F91FF902A
:1011B000EF90DF90CF90BF9008951F920F920FB6DF
:1011C0000F921124DF92EF92FF920F931F932F93B0
:1011D0003F934F935F936F937F938F939F93AF93BF
:1011E000BF93EF93FF93CF93DF93CDB7DEB76C97A9
:1011F000DEBFCDBF1092E9008091E80083FF23C1DC
:1012000068E0CE0145960E949C0682EF8093E8003C
:101210003D8937FF05C08091E80080FFFCCF03C007
:101220008EEF8093E800832F807609F0F0C02E893E
:101230004F89D88C21110CC0303829F48091D80105
:101240008093F10002C01092F1001092F100F4C0FE
:10125000842F90E09D29213049F43111EDC0019790
:1012600009F0EAC08091D8018D7F0AC0233059F47B
:101270003111E2C0019709F0DFC08091D80182608E
:101280008093D801D9C0253041F48091E80080FFD7
:10129000FCCF40684093E300CFC0263009F08DC0FA
:1012A000EB8CFC8C22E0D2122CC080E090E00E94FB
:1012B0006E080E94370799E08E010F5F1F4FF801FB
:1012C000292F11922A95E9F79983DA8291E09E837A
:1012D00090EA98879AEF99872091D5013091D601AD
:1012E000275F3F4F3C832B838D83C7010E946E088D
:1012F00049E050E0B80180E00E9479080E94370779
:101300009BC0C7010E946E080E944B0CBE016B5E21
:101310007F4F0E94ED0B009719F00CF08DC090C02C
:1013200081E0D8120EC08B8D9C8D089719F481E056
:101330008093D2018091D20181112FC065EA71E0C2
:1013400031C0E3E0DE127CC08F89882349F182300E
:1013500029F440E860E183EC91E01CC0813029F47D
:1013600040E86BE087EB91E015C0833009F068C07E
:101370000E944B0C8E010F5F1F4FB8010E940C0C96
:10138000F80101900020E9F73197E01BF10B40E0F4
:101390006E2FC8010E94D7064DC063E971E002C0FC
:1013A00064ED71E06115710509F44AC0FB014491D7
:1013B00050E080E80E9479083FC0273009F440C01F
:1013C000283021F481E08093F10036C02930A1F566
:1013D0003370B1F5EFE1F1E081E021E036E3908197
:1013E000992361F08093E9002093EB009191909311
:1013F000EC003093ED008F5F873089F78EE78093A4
:10140000EA001092EA008F898093D90115C08B8D74
:101410009C8D0E946E08898D811105C0CE01459674
:101420000E94380507C00E944B0CBE016B5E7F4FC7
:101430000E942B0C882321F08EEF8093E80003C0DC
:1014400081E28093EB006C960FB6F894DEBF0FBE7E
:10145000CDBFDF91CF91FF91EF91BF91AF919F9160
:101460008F917F916F915F914F913F912F911F913C
:101470000F91FF90EF90DF900F900FBE0F901F9095
:1014800018958093E9008091F200882319F08AE38F
:101490008093E80008951F920F920FB60F921124C7
:1014A0002F933F934F935F936F937F938F939F936C
:1014B000AF93BF93CF93EF93FF93C091E1008091DF
:1014C000E100837F8093E1008093E100C3FF0FC0C0
:1014D0001092E90081E08093EB001092EC0082E32F
:1014E0008093ED001092D90188E08093F000C2FF54
:1014F00019C083E00E94410A8091DB01882339F002
:101500008091DB0181508093DB01882389F18091F8
:10151000DA01882339F08091DA0181508093DA0171
:10152000882341F1C4FF10C08091E2008E7E81606B
:101530008093E2008091E1008F7E8093E1008091B2
:10154000D7018E7E806111C0C0FF16C08091E2007D
:101550008E7E80618093E2008091E1008E7E809398
:10156000E1008091D7018E7E81608093D70104C015
:101570005D9ACDCF289AD6CFFF91EF91CF91BF91B1
:10158000AF919F918F917F916F915F914F913F911B
:101590002F910F900FBE0F901F9018951092D901A8
:1015A0001092D8011092D7010E941407E1EEF0E0EA
:1015B00080818E7E80838DE08093E200559A209A10
:1015C0000895FC01808191810C94FD0CCF93DF93F1
:1015D000EC0188819981009711F00E94FD0C19821D
:1015E00018821D821C821B821A82DF91CF9108957E
:1015F0000F931F93CF93DF93EC018B016F5F7F4FAE
:10160000888199810E948C0D009731F0998388839D
:101610001B830A8381E001C080E0DF91CF911F919D
:101620000F910895CF93DF93EC0188819981892BE5
:1016300029F08A819B818617970760F4CE010E946A
:10164000F80A882341F08C819D81892B19F4E88167
:10165000F981108281E0DF91CF910895EF92FF929E
:101660000F931F93CF93DF93EC017B018A01BA01A3
:101670000E94120B811104C0CE010E94E60A07C02D
:101680001D830C83B701888199810E94680ECE0169
:10169000DF91CF911F910F91FF90EF900895FC0182
:1016A00011821082138212821582148261157105D3
:1016B00059F0FB0101900020E9F7AF0141505109B9
:1016C000461B570B0C942E0B0895EF92FF920F932D
:1016D0001F93CF93DF93EC017B010C811D8161157A
:1016E000710511F480E016C04115510591F0040F09
:1016F000151FB8010E94120B8823A1F3288139819C
:101700008C819D81B701820F931F0E94680E1D83FB
:101710000C8381E0DF91CF911F910F91FF90EF90AB
:101720000895CF93DF9300D0CDB7DEB769831A82D7
:1017300041E050E0BE016F5F7F4F0E94650B0F904C
:101740000F90DF91CF910895FC0124813581232BE7
:1017500031F421E061157105A1F0FB0108C0FC0125
:10176000808191816115710531F421E0FC01808156
:10177000882339F005C00E945F0E21E0892B09F013
:1017800020E0822F08950895EF92FF920F931F9308
:10179000CF93DF937B01FC01C281D38100E010E095
:1017A000209781F0E881F9810280F381E02DB70173
:1017B000CE01099597FD08C0080F191F0884D98527
:1017C000C02DEECFC80102C08FEF9FEFDF91CF9108
:1017D0001F910F91FF90EF9008950F931F93CF9358
:1017E000DF938B01FC01C281D381209771F0E881E6
:1017F000F9810480F581E02DB801CE0109950097AB
:1018000031F40884D985C02DF0CF80E090E0DF91DD
:10181000CF911F910F9108950F931F93CF93DF9353
:101820008B01FC01C281D381209771F0E881F9819D
:101830000680F781E02DB801CE010995080F111D32
:101840000884D985C02DF0CFF8011082DF91CF91A7
:101850001F910F9108950F931F93CF93DF938B01E7
:10186000FC01C281D381209771F0E881F981019058
:10187000F081E02DB801CE010995811106C00884E0
:10188000D985C02DF0CF80E001C081E0DF91CF91FC
:101890001F910F9108958091E00181110DC082E0A8
:1018A0008093DC0184E08093DD011092DF011092CF
:1018B000DE0181E08093E0018CED91E00895EE0F70
:1018C000FF1F0590F491E02D0994CF93DF938230B0
:1018D000910510F482E090E0E091EA01F091EB01D3
:1018E00020E030E0A0E0B0E0309739F14081518154
:1018F00048175907B8F04817590771F48281938146
:10190000109729F013969C938E9312972CC0909366
:10191000EB018093EA0127C02115310531F0421710
:10192000530718F0A901DB0101C0EF019A01BD01C5
:10193000DF010280F381E02DD7CF21153105F9F0C9
:10194000281B390B2430310580F48A819B81611575
:10195000710521F0FB019383828304C09093EB0116
:101960008093EA01FE01329644C0FE01E20FF31FAC
:101970008193919322503109398328833AC0209171
:10198000E8013091E901232B41F4209102013091CB
:1019900003013093E9012093E80120910001309187
:1019A00001012115310541F42DB73EB740910401E5
:1019B00050910501241B350BE091E801F091E901FC
:1019C000E217F307A0F42E1B3F0B2817390778F016
:1019D000AC014E5F5F4F2417350748F04E0F5F1F75
:1019E0005093E9014093E8018193919302C0E0E0B4
:1019F000F0E0CF01DF91CF910895CF93DF9300976F
:101A000009F487C0FC01329713821282C091EA0167
:101A1000D091EB01209781F420813181280F391F6B
:101A20008091E8019091E9018217930779F5F0938D
:101A3000E901E093E8016DC0DE0120E030E0AE177F
:101A4000BF0750F412964D915C9113979D0141157B
:101A5000510509F1DA01F3CFB383A28340815181AB
:101A6000840F951F8A179B0771F48D919C91119794
:101A7000840F951F02969183808312968D919C917D
:101A80001397938382832115310529F4F093EB0199
:101A9000E093EA013EC0D9011396FC93EE931297AE
:101AA0004D915D91A40FB51FEA17FB0779F4808172
:101AB0009181840F951F0296D90111969C938E9364
:101AC0008281938113969C938E931297E0E0F0E0CD
:101AD0008A819B81009719F0FE01EC01F9CFCE01BC
:101AE000029628813981820F931F2091E80130915D
:101AF000E9012817390769F4309729F41092EB01AE
:101B00001092EA0102C013821282D093E901C093BD
:101B1000E801DF91CF910895A0E0B0E0E2E9FDE0B7
:101B20000C94730EEC01CB01209719F40E94650C04
:101B3000B8C0FE01E60FF71F9E0122503109E217DF
:101B4000F30708F4ACC0D9010D911C911197061749
:101B50001707B8F00530110508F49FC0A8014450DC
:101B600051094617570708F498C002501109061B7F
:101B7000170B019311936D937C93CF010E94FD0C81
:101B80008CC05B01A01AB10A4E01800E911EA0917B
:101B9000EA01B091EB01612C712C60E070E01097CC
:101BA00009F449C0A815B905C9F5ED90FC90119745
:101BB000670142E0C40ED11CCA14DB0478F147016E
:101BC0008A189B08640142E0C40ED11C1296BC9096
:101BD00012971396AC91B5E0CB16D10440F0B282C7
:101BE000A38391828082D9018D939C9309C00E5F5B
:101BF0001F4F0E0D1F1DF90111830083EB2DFA2FCE
:101C00006115710531F0DB011396FC93EE93129789
:101C100044C0F093EB01E093EA013FC06D917C91E9
:101C200011976616770608F43B01BD0112960D90D8
:101C3000BC91A02DB4CF6091E8017091E9016815C5
:101C40007905E9F468167906D0F4409100015091C5
:101C500001014115510541F44DB75EB76091040192
:101C600070910501461B570BE417F507C0F4F0937C
:101C7000E901E093E801F901918380830EC00E949D
:101C8000650C7C01009759F0A801BE010E94560E18
:101C9000CE010E94FD0CC70104C0CE0102C080E04D
:101CA00090E0CDB7DEB7EEE00C948F0EFB01DC01C7
:101CB00002C001900D9241505040D8F70895FB01A9
:101CC000DC018D91019080190110D9F3990B0895D1
:101CD000FB01DC0101900D920020E1F708952F92A5
:101CE0003F924F925F926F927F928F929F92AF92AC
:101CF000BF92CF92DF92EF92FF920F931F93CF93F9
:101D0000DF93CDB7DEB7CA1BDB0B0FB6F894DEBF8F
:101D10000FBECDBF09942A88398848885F846E84B5
:101D20007D848C849B84AA84B984C884DF80EE80FF
:101D3000FD800C811B81AA81B981CE0FD11D0FB608
:101D4000F894DEBF0FBECDBFED010895F894FFCF2C
:101D50000000EC01800012001300140015001600B2
:101D60001700FFFFFFFF00E100000000000000C1BE
:101D7000808100000020006D61726B6F77616E677B
:101D800061004861736C6F20706F707261776E656F
:101D90000000000000D0041705FA040A05E604F765
:101DA000040D0A006E616E00696E66006F76660053
:021DB0002E0003
:00000001FF
